:100000000C9467010C948F010C948F010C948F0158
:100010000C948F010C948F010C948F010C948F0120
:100020000C948F010C948F010C948F010C948F0110
:100030000C948F010C948F010C948F010C948F0100
:100040000C94B2210C948F010C9422220C94FC216C
:100050000C948F010C948F010C948F010C948F01E0
:100060000C9454220C948F0100407A10F35A00A093
:10007000724E18090010A5D4E80000E87648170071
:1000800000E40B54020000CA9A3B000000E1F505B1
:10009000000080969800000040420F000000A086FB
:1000A00001000000102700000000E803000000002D
:1000B0006400000000000A000000000001000000D1
:1000C00000002C76D888DC674F0823DFC1DFAE59EB
:1000D000E1B1B796E5E3E453C63AE651997696E87E
:1000E000E6C28426EB898C9B62ED407C6FFCEFBC02
:1000F0009C9F40F2BAA56FA5F490055A2AF75C932D
:100100006B6CF9676DC11BFCE0E40D47FEF520E662
:10011000B500D0ED902E0300943577050080841E45
:10012000080000204E0A000000C80C333333330FA0
:10013000986E12831141EF8D2114893BE65516CF3D
:10014000FEE6DB18D1844B381BF77C1D901DA4BB49
:10015000E424203284725E228100C9F124ECA1E5FE
:100160003D27626C6E6B696E66006D637500302EA4
:10017000302E300066772D7479706500544D504CE8
:1001800033643746554554576B006275696C64009B
:100190004F637420333020323032352032303A34DD
:1001A000303A303000626C796E6B00312E332E3273
:1001B00000682D6265617400343500627566662DD5
:1001C000696E003235360064657600417264756987
:1001D0006E6F20556E6F006370750041546D6567DA
:1001E000613332385000636F6E0057353130300064
:1001F000000000000000240027002A00000000008A
:10020000250028002B000000000023002600290004
:1002100004040404040404040202020202020303AC
:1002200003030303010204081020408001020408B4
:100230001020010204081020000000080002010044
:10024000000304070000000000000000920192017A
:100250009201920192019201920192019201920106
:1002600092019201920192019201920192019201F6
:1002700092019201920192019201920192019201E6
:100280009201920192019201920192018A0A9101D6
:10029000660A9101910191019101910191019101F0
:1002A0009101400A1A0A9101910191019101910174
:1002B00091019101910191019101910191019101AE
:1002C0009101910191019101910191010224112467
:1002D0001FBECFEFD8E0DEBFCDBF12E0A0E0B1E09F
:1002E000E8E1FAE602C005900D92A438B107D9F70B
:1002F00025E0A4E8B2E001C01D92A83CB207E1F7F6
:1003000011E0C7E6D1E004C02197FE010E94C83485
:10031000C636D107C9F70E94F7240C940A350C940D
:100320000000089508958CBD9DBD089520E3FC0153
:1003300020833296862F82958F706F706A3030F4EA
:10034000605D6293682F8111F5CF0895695CF9CFE4
:10035000FC01818D928D0895833081F028F48130E5
:1003600099F08230A9F008958730A9F08830C9F05B
:100370008430B1F4809180008F7D03C08091800033
:100380008F7780938000089584B58F7784BD08951A
:1003900084B58F7DFBCF8091B0008F778093B000C4
:1003A00008958091B0008F7DF9CF1F93CF93DF9395
:1003B000282F30E0F901E85CFD4F8491F901EC5DF4
:1003C000FD4FD491F901E05FFD4FC491CC23A9F01A
:1003D000162F81110E94AC01EC2FF0E0EE0FFF1FF1
:1003E000E450FE4FA591B4918FB7F894EC911111A0
:1003F00008C0D095DE23DC938FBFDF91CF911F9192
:100400000895DE2BF8CFCF93DF9390E0FC01EC5DF5
:10041000FD4F2491805F9D4FFC0184918823C9F09A
:1004200090E0880F991FFC01EE50FE4FA591B4910A
:10043000FC01E450FE4FC591D49161110DC09FB7EE
:10044000F8948C91209582238C938881282328838B
:100450009FBFDF91CF910895623051F49FB7F89418
:100460003C91822F809583238C93E8812E2BEFCFB4
:100470008FB7F894EC912E2B2C938FBFEACF1F935C
:10048000CF93DF93182FEB0161E00E9403022097C6
:1004900039F460E0812FDF91CF911F910C94D50149
:1004A000CF3FD10511F461E0F5CFE12FF0E0E85C3A
:1004B000FD4FE491E33031F140F4E130B1F0E2304E
:1004C000E1F0C038D1057CF7E4CFE73029F1E8301E
:1004D00059F1E430B1F78091800080628093800010
:1004E000D0938B00C0938A0004C084B5806884BD1B
:1004F000C7BDDF91CF911F91089584B5806284BDFF
:10050000C8BDF7CF80918000806880938000D09331
:100510008900C0938800EDCF8091B00080688093FF
:10052000B000C093B300E5CF8091B00080628093AB
:10053000B000C093B400DDCF8E3008F08E508770CD
:10054000806480937C0080917A00806480937A003C
:1005500080917A0086FDFCCF80917800909179009F
:1005600008953FB7F8948091BB039091BC03A0918C
:10057000BD03B091BE0326B5A89B05C02F3F19F05F
:100580000196A11DB11D3FBFBA2FA92F982F882713
:10059000BC01CD01620F711D811D911D42E0660FEE
:1005A000771F881F991F4A95D1F708958F929F92C0
:1005B000AF92BF92CF92DF92EF92FF926B017C01DC
:1005C0000E94B1024B015C01C114D104E104F104A9
:1005D000B9F00E94B102681979098A099B09683E3D
:1005E00073408105910580F321E0C21AD108E1082A
:1005F000F10888EE880E83E0981EA11CB11CE4CFA0
:10060000FF90EF90DF90CF90BF90AF909F908F9032
:1006100008952FB7F8946091B7037091B803809153
:10062000B9039091BA032FBF0895089508954F928A
:100630005F926F927F92AF92BF92CF92DF92EF92D2
:10064000FF920F931F93CF93DF93EC016B017B011C
:10065000E40EF51E8B015801AC18BD080E151F05E0
:1006600011F10E940903688779878A879B87E8814F
:10067000F9810284F385E02DCE01099597FF23C00F
:100680000E940903488459846A847B84641975092B
:10069000860997094C805D806E807F8064157505A2
:1006A0008605970520F3C501DF91CF911F910F912A
:1006B000FF90EF90DF90CF90BF90AF907F906F90C2
:1006C0005F904F900895F80181938F01C4CFAF924E
:1006D000BF92CF92DF92EF92FF920F931F93CF932F
:1006E000DF936C017B018B01040F151FEB015E0191
:1006F000AE18BF08C017D10759F06991D601ED9126
:10070000FC910190F081E02DC6010995892B79F7C4
:10071000C501DF91CF911F910F91FF90EF90DF9076
:10072000CF90BF90AF900895FC01538D448D252F3D
:1007300030E0842F90E0821B930B541710F0CF967B
:10074000089501970895FC01918D828D981761F0AD
:10075000A28DAE0FBF2FB11D5D968C91928D9F5FC4
:100760009F73928F90E008958FEF9FEF0895FC01A3
:10077000918D828D981731F0828DE80FF11D858D56
:1007800090E008958FEF9FEF0895FC01918D228DE9
:10079000892F90E0805C9F4F821B91098F7399276E
:1007A00008958CED93E00E94C50321E0892B09F4A4
:1007B00020E0822F089580E090E0892B29F00E94AC
:1007C000D10381110C9400000895FC01A48DA80FA1
:1007D000B92FB11DA35ABF4F2C91848D90E0019683
:1007E0008F739927848FA689B7892C93A089B189A3
:1007F0008C91837080648C93938D848D981306C044
:100800000288F389E02D80818F7D80830895EF92A7
:10081000FF920F931F93CF93DF93EC0181E0888FBA
:100820009B8D8C8D98131AC0E889F989808185FF8A
:1008300015C09FB7F894EE89FF896083E889F9892C
:1008400080818370806480839FBF81E090E0DF912E
:10085000CF911F910F91FF90EF900895F62E0B8D81
:1008600010E00F5F1F4F0F731127E02E8C8D8E113C
:100870000CC00FB607FCFACFE889F989808185FFA3
:10088000F5CFCE010E94E503F1CFEB8DEC0FFD2FEC
:10089000F11DE35AFF4FF0829FB7F8940B8FEA895E
:1008A000FB8980818062CFCF682F8CED93E00C9420
:1008B0000704CF93DF93EC01888D8823B9F0AA89D0
:1008C000BB89E889F9898C9185FD03C0808186FD0B
:1008D0000DC00FB607FCF7CF8C9185FFF2CF80815A
:1008E00085FFEDCFCE010E94E503E9CFDF91CF91E7
:1008F00008952091C702260F3327331F2132310577
:10090000ECF420911003FC0190E080E0243069F0C9
:1009100082E00895A091C7022191AC0149555D4F35
:10092000A40FB52FB11D2C930196861798F38091D3
:10093000C702680F6093C70280E0089581E00895C0
:100940001092100381E080930F031092EA0261E09D
:1009500082E10E94D50161E083E10E94D501E9EBCB
:10096000F0E080818E7F808380818D7F808388E42A
:100970008093B80085E48093BC000895CF93DF9303
:1009800091E09093A6028823B9F0C091B800D0916D
:10099000BA008091BC008A7B8093BC0060E082E159
:1009A0000E94D50160E083E10E94D5010E94A0046D
:1009B000D093BA00C093B800DF91CF910895E09131
:1009C000AD038091AC03E81730F4F0E0EA57FD4F37
:1009D000808190E008958FEF9FEF08959091AD038F
:1009E0008091AC032FEF3FEF981748F4E92FF0E028
:1009F000EA57FD4F208130E09F5F9093AD03C9011E
:100A000008958091AC039091AD03891B990B0895D3
:100A1000CF92DF92EF92FF920F931F93CF93DF93CA
:100A20007C01CB018A0120911603222389F0EB017E
:100A30006B01C40ED51ECC15DD0569F06991D70197
:100A4000ED91FC910190F081E02DC7010995F3CF64
:100A5000642F0E947904C801DF91CF911F910F91FB
:100A6000FF90EF90DF90CF900895CF93DF931F9288
:100A7000CDB7DEB76983209116032223F9F02091C8
:100A8000AA03203258F021E030E0FC0133832283B6
:100A900090E080E00F90DF91CF9108958091AB03BB
:100AA000E82FF0E0E95EFC4F998190838F5F80939F
:100AB000AB038093AA0381E090E0ECCF61E0CE012C
:100AC00001960E947904F7CFCF92DF92EF92FF92C6
:100AD0000F931F93CF93DF93FC01C48121E02093F8
:100AE0001603C09337031092AB031092AA038385B9
:100AF000682B89E794E00E943505D091AA03D13292
:100B000008F092C00E94B1026B017C018091100339
:100B1000811165C082E08093100381E080930F0310
:100B20008FEF80930E0310920D03D0930C03A7E177
:100B3000B3E0ECEEF2E080E0D81385C01092EB0257
:100B40008091EB02CC0FC82BC093EB028091EA029C
:100B5000813009F07CC01092EA020E94B1026B0160
:100B60007C018091EB028093BB00809112039091F5
:100B70001303A0911403B0911503892B8A2B8B2B9F
:100B800099F00E94B1020091120310911303209179
:100B90001403309115036C197D098E099F090617FE
:100BA000170728073907E0F18091BC0083FDD9CFF2
:100BB00085EC8093BC000E94B1026B017C018091A6
:100BC0001003823009F445C080910E038F3F61F11C
:100BD00080910E03803241F180910E0325C08091F7
:100BE000120390911303A0911403B0911503892B64
:100BF0008A2B8B2B09F48ACF0E94B1020091120339
:100C00001091130320911403309115036C197D0981
:100C10008E099F09061717072807390708F076CFAE
:100C2000809111030E94BE041092AB031092AA039C
:100C300010921603DF91CF911F910F91FF90EF90CB
:100C4000DF90CF9008959D9191938F5F75CF85EE42
:100C5000B0CF8091120390911303A0911403B0912F
:100C60001503892B8A2B8B2B09F4A9CF0E94B10283
:100C70000091120310911303209114033091150376
:100C80006C197D098E099F09061717072807390770
:100C900008F095CFC5CFFC0120812EBD9B012150CE
:100CA000310941F051810DB407FEFDCF4EB55EBD57
:100CB0004193F5CF61507109860F971F0DB407FE60
:100CC000FDCF2EB5FC0120830895E0913903F0910A
:100CD0003A03808190913803892B80830895E091B5
:100CE0003903F0913A0390818091380380958923EC
:100CF000808308958EBD00000DB407FEFDCF8EB534
:100D00000895AF92BF92CF92DF92EF92FF920F932E
:100D10001F93CF93DF93CDB7DEB728970FB6F89424
:100D2000DEBF0FBECDBF8C017B016A018091DB036A
:100D30008333E1F45801A40EB51EA016B10609F4E0
:100D40006FC00E946F0680EF0E947A06812F0E947A
:100D50007A06802F0E947A060F5F1F4FF70181915C
:100D60007F010E947A060E946506E7CF5B01A40E10
:100D7000B51E8433C1F40E946F0619830A838D2D3A
:100D800080688B83CC8264E070E0CE0101960E9483
:100D90004B06AE14BF0409F441C0F70181917F01F5
:100DA0000E947A06F6CF0E946F060F3F110509F0E8
:100DB00028F419820A8384E08B830CC017FD17C0C6
:100DC00019820A8333E0169507953A95E1F7007E7C
:100DD0000C600B8386E0C816D104A0F5F701DE0194
:100DE0001496EA15FB0599F081918D93FACFC8010D
:100DF00026E0969587952A95E1F7807E19830A83E8
:100E00000115104C10F48461D7CF8C61D5CFB60199
:100E10006D5F7F4FCE0101960E944B060E946506D2
:100E2000C60128960FB6F894DEBF0FBECDBFDF9186
:100E3000CF911F910F91FF90EF90DF90CF90BF90D7
:100E4000AF90089563E070E0CE0101960E944B06DA
:100E5000F70181917F010E947A06AE14BF04C1F7A9
:100E6000DDCFCF93DF931F92CDB7DEB7898341E00B
:100E700050E0BE016F5F7F4F90E080E00E948106EE
:100E80000F90DF91CF91089590E02091DB03233301
:100E900039F40C96982F990F990F990F80E00895C7
:100EA0004896F8CFDA01E0913C03F0E0FE2FEE2700
:100EB000E60FF71F90E0982F8827A901BD018E0F3C
:100EC0009F1F0C948106CF93DF9300D0CDB7DEB780
:100ED00079836A8322E030E0AE014F5F5F4F60E1CB
:100EE00070E00E9452070F900F90DF91CF9108950C
:100EF000CF93DF9300D0CDB7DEB779836A8322E04A
:100F000030E0AE014F5F5F4F64E070E00E94520737
:100F10000F900F90DF91CF910895CF93DF931F92A1
:100F2000CDB7DEB720913C0330E0322F2227260FC9
:100F3000371F90E0982F8827498341E050E0BE0199
:100F40006F5F7F4F820F931F0E9481060F90DF918A
:100F5000CF910895CF93DF931F92CDB7DEB769830A
:100F6000DC01ED91FC910280F381E02D41E050E045
:100F7000BE016F5F7F4F09950F90DF91CF9108956C
:100F80000895FC019485FB018485981303C081E0DA
:100F9000943008F080E00895CF93DF931F92CDB78F
:100FA000DEB76983DC01ED91FC910280F381E02DD5
:100FB00041E050E0BE016F5F7F4F09950F90DF91D8
:100FC000CF9108950895FF920F931F93CF93DF93CE
:100FD000EB01FC01178A168A2A81211109C02B8195
:100FE000211106C02C81211103C02D81222301F182
:100FF00041155105E9F08A01FC01F08C80E591E092
:101000000E949301AE014E5F5F4F24E030E06CE040
:1010100070E08F2D0E945207B8018F2D0E94630748
:1010200081E090E0DF91CF911F910F91FF900895A3
:1010300080E0F7CFFC01848595850895FC018489C3
:10104000958908952AEA31E0FC0131832083FB0170
:101050004089518962897389FC0142835383648387
:1010600075830895DC01ED91FC91048CF58DE02DE4
:10107000099490E080E008958EE00E949C02BC01FB
:10108000990F880B990B0E94773120E030E040EAFD
:1010900050E40E94D63120E030E040E85AE30E945C
:1010A000D6312AE037ED43E25CE30E949B3308959A
:1010B00090E080E00E94540481E090E00C9454049D
:1010C000CF9380E390E00E9454048CED93E00E9463
:1010D000C503892BD1F38CED93E00E94A303C82FA5
:1010E000809385028CED93E00E94C503892BD1F398
:1010F0008CED93E00E94A30320E03C2F282B30933B
:10110000B1032093B00380E698E0CF910895EF9269
:10111000FF920F931F93CF93DF9300D000D000D0A6
:10112000CDB7DEB7DC01AB0118966D917C911997B4
:101130008D919C911197FC01208131816115710580
:10114000B9F0D9015096ED91FC91099521E00197F4
:1011500009F020E0822F26960FB6F894DEBF0FBE6E
:10116000CDBFDF91CF911F910F91FF90EF90089528
:10117000F901E684F7842AEA31E03A832983149658
:101180000D911D912D913C9117970B831C832D83FD
:101190003E83BE016F5F7F4FF701D7CFFC0194857F
:1011A000992369F080819181DC01ED91FC910688A1
:1011B000F789E02D099591E0811101C090E0892F18
:1011C0000895DC011C961C921C978D919C910097B0
:1011D00039F0DC01ED91FC910488F589E02D09944A
:1011E0000895FC01768765870895DC01ED91FC91F7
:1011F00002A0F3A1E02D099591E089270895862F9B
:10120000089581E08627089521E0FC0184858430DB
:1012100008F020E0822F08950895FB01019000203E
:10122000E9F73197AF01461B570BDC01ED91FC91BB
:101230000280F381E02D09948F929F92AF92BF922A
:10124000EF92FF920F931F93CF93DF93CDB7DEB74B
:10125000A1970FB6F894DEBF0FBECDBF7C01FA0197
:10126000CB0119A2223008F42AE08E010F5D1F4F36
:10127000822E912CB12CA12CBF01A50194010E94BA
:10128000FD32F901CA016A300CF5605DD8016E9338
:101290008D01232B242B252B79F790E080E01097EC
:1012A00021F0BD01C7010E940D09A1960FB6F89467
:1012B000DEBF0FBECDBFDF91CF911F910F91FF9089
:1012C000EF90BF90AF909F908F900895695CDECFB4
:1012D000BC018DE695E00C940D098F929F92AF9220
:1012E000BF92CF92DF92EF92FF920F931F93CF9313
:1012F000DF937C01EB016C0182E0C80ED11C470139
:10130000E5E08E0E911C10E000E0F60141916F01C6
:1013100050E070E060E02AE0CE010E941C095C0110
:10132000E881F9810190F081E02D6EE2CE0109950E
:101330008A0D9B1D080F191FC814D90431F7F70136
:10134000458150E070E060E02AE0CE010E941C0977
:10135000800F911FDF91CF911F910F91FF90EF9020
:10136000DF90CF90BF90AF909F908F9008950F9394
:101370001F93CF938C01C62F0E9464056C2F64606D
:10138000C8010E9464056C2F6B7FC8010E94640530
:1013900083EC90E00197F1F7CF911F910F910895A1
:1013A0000F931F93CF93DF938C01D62FC42F607FB1
:1013B000642B0E94B70980E1D89FB00111246C2BE7
:1013C000C801DF91CF911F910F910C94B709CF9372
:1013D000DF93CDB7DEB728970FB6F894DEBF0FBE08
:1013E000CDBF98E0ECE0F1E0DE01119601900D92A6
:1013F0009A95E1F790917505961708F46FEF262FEF
:1014000030E0220F331F41E050E04C0F5D1F240FEE
:10141000351FF9016081680F606840E08DE695E056
:1014200028960FB6F894DEBF0FBECDBFDF91CF91E7
:101430000C94D009FB01808191810E94992E892B07
:1014400081F081E090E00E94540481E090E00E94ED
:10145000540461E087E00E94E7098CEA91E00C9473
:10146000680981E090E00E94540490E080E00E94CE
:10147000540461E087E00E94E70987EB91E0EFCF39
:10148000FB01808191810E94992E21E0009709F44F
:1014900020E02093AF03892B51F00E94580861E0AF
:1014A00087E00E94E70982EC91E00C94680990E0E3
:1014B00080E00E94540490E080E00E94540461E0C7
:1014C00087E00E94E7098CEC91E0EFCFFB0180817F
:1014D00091810E94992E21E0009709F420E0209349
:1014E000AE03892B61F061E087E00E94D50160E0E6
:1014F00088E00E94E70986ED91E00C94680960E0BD
:1015000087E00E94D50160E088E00E94E7098EED47
:1015100091E0F3CFFB01808191810E94992E21E01F
:10152000009709F420E020938402892B61F061E0A8
:1015300088E00E94D50160E088E00E94E70986EE1D
:1015400091E00C94680960E088E00E94D50160E0B9
:1015500088E00E94E7098FEE91E0F3CF40E061E080
:101560008DE695E00E94D0098BE39FE10197F1F7AA
:10157000089541E00E94D00981E090E00895AF9283
:10158000BF92CF92DF92EF92FF920F931F93CF9370
:10159000DF9300D000D0CDB7DEB78C016B017A01AC
:1015A0008091DB038333E9F45B016801C40ED51E2F
:1015B000C016D106A9F10E946F068FE00E947A063C
:1015C000812F0E947A06802F0E947A060F5F1F4F9C
:1015D00080E00E947A06F50181935F010E94650612
:1015E000E7CF843369F50E946F0619830A838F2D34
:1015F0008F778B83EC8264E070E0CE0101960E94CD
:101600004B06A70170E060E0C6010E94E434E114DB
:10161000F10421F0B701C6010E944B060E94650645
:10162000C7010F900F900F900F90DF91CF911F91F6
:101630000F91FF90EF90DF90CF90BF90AF90089503
:101640000E946F060F3F110509F030F419820A83DA
:101650001B8263E070E0D1CF17FD0BC019820A83B3
:1016600033E0169507953A95E1F7007E08600B8305
:10167000F0CFC80126E0969587952A95E1F7807E00
:1016800019830A830115104C18F480618B83E1CF14
:101690008861FCCFCF93DF931F92CDB7DEB7209147
:1016A0003C0330E0322F2227260F371F90E0982F7F
:1016B000882741E050E0BE016F5F7F4F820F931F8C
:1016C0000E94BF0A89810F90DF91CF910895CF9337
:1016D000C82F462F61E070E00E948D0761E070E046
:1016E0008C2F0E944A0B8111F9CFCF910895CF938F
:1016F000C82F80E591E00E94930168E070E08C2F94
:10170000CF910C94670BCF93C82F80E591E00E9496
:10171000930160E170E08C2FCF910C94670BCF9315
:10172000DF93EC01888D843020F40E94830B84E0E9
:10173000888FDF91CF910895CF93C82F80E591E0F6
:101740000E94930163E070E08C2FCF910C944A0BC0
:10175000CF93DF93EC018C858430D0F40E949C0BF6
:10176000843189F0882379F0883169F021E08C3167
:1017700059F4E881F9810084F185E02DCE010995C5
:1017800021E0892B09F420E0822FDF91CF91089589
:1017900080E0FBCFCF92DF92EF92FF92CF93DF9367
:1017A000EC018C85843068F40E94770B0E94090359
:1017B0006B017C018C850E949C0B811109C084E027
:1017C0008C87DF91CF91FF90EF90DF90CF900895BD
:1017D00061E070E080E090E00E94D6020E94090380
:1017E000AB01BC014C195D096E097F098D859E8591
:1017F000B0E0A0E0481759076A077B07D8F28C854C
:101800000E94830BDCCFCF93FC01C08D80E591E07B
:101810000E94930160E270E08C2F0E94670B62E0EF
:1018200070E08C2F0E944A0B84FD16C062E070E0CD
:101830008C2F0E944A0B83FF0AC048E162E070E0EF
:101840008C2F0E948D0780E090E0CF91089580E575
:1018500091E00E949301E3CF40E162E070E08C2FC1
:101860000E948D0781E0F0CFCF93DF931F92CDB719
:10187000DEB741E050E0BE016F5F7F4F90E080E057
:101880000E94BF0A89810F90DF91CF910895CF9375
:10189000DF93C4E1D0E00E94340C882361F061E062
:1018A00070E080E090E00E94D6022197A1F780E0EE
:1018B000DF91CF91089581E0FBCF1F93CF93DF930A
:1018C0001F92CDB7DEB7182F80E591E00E949301FB
:1018D000812F0E94440727E0129FF0011124E15458
:1018E000FC4F22813381377041E050E0BE016F5FD1
:1018F0007F4F820F931F0E94BF0A89810F90DF9153
:10190000CF911F910895FC01808D843040F4218D8A
:10191000328D232B21F00E945D0C90E008958FEF13
:101920009FEF0895CF93DF93FC012485243028F0A6
:101930008FEF9FEFDF91CF910895EC010190F0813F
:10194000E02D0084F185E02D0995892B89F38C85A4
:101950000E945D0C90E0EECFDA01E0913C03F0E0F4
:10196000FE2FEE27E60FF71F90E0982F8827A9019A
:10197000BD018E0F9F1F0C94BF0A8F929F92AF9252
:10198000BF92CF92DF92EF92FF921F93CF93DF939C
:10199000CDB7DEB72C970FB6F894DEBF0FBECDBF24
:1019A0002091DB0314E0222339F16B017C0180E5F7
:1019B00091E00E9493015E0127E0A20EB11C450157
:1019C00010E063E070E0812F0E944A0BF4018193E4
:1019D0004F01882349F11F5F143099F710E0F5019A
:1019E00081915F018D31D9F08831C9F08A518230FF
:1019F000B0F01F5F143099F7812F2C960FB6F89432
:101A0000DEBF0FBECDBFDF91CF911F91FF90EF9052
:101A1000DF90CF90BF90AF909F908F90089560E13E
:101A200070E0812F0E94670BA12EB12C83EE93E012
:101A30000197F1F742E870E060E0812F0E948D0786
:101A40004FEF62E070E0812F0E948D07B601C11454
:101A5000D10491F4809100019091010101968115CA
:101A6000F0EC9F0708F45CC09093010180930001A3
:101A70006091000170910101812F0E94780786E03A
:101A8000E4E1F1E0DE01119601900D928A95E1F713
:101A9000F70183818F778C8384818D8385818E8309
:101AA000A7014E5F5F4F24E030E06CE070E0812FD3
:101AB0000E945207B601812F0E94630726E030E0A2
:101AC000AE014F5F5F4F66E070E0812F0E945207CA
:101AD00061E070E0812F0E94670B27E02A9DC00122
:101AE0002B9D900D11249C0121543C4F7901F9014B
:101AF0001182108222E030E0AE01455F5F4F68E264
:101B000070E0812F0E94AC0C8B859C8598278927DB
:101B10009827F701938382831682158214826CCFF3
:101B200080E090ECA1CFCF92DF92EF92FF920F93E3
:101B30001F93CF93DF9300D000D000D0CDB7DEB796
:101B40008C016B017A01FC01808D843010F40E94BD
:101B5000830B8AEA91E09A838983F60182819381DB
:101B6000A481B5818B839C83AD83BE83B701CE01F5
:101B700001960E94BD0CF801808F8430A0F4F58698
:101B8000E486128E118E81E026960FB6F894DEBFA1
:101B90000FBECDBFDF91CF911F910F91FF90EF90BE
:101BA000DF90CF90089580E0EFCFAF92BF92CF92B9
:101BB000DF92EF92FF920F931F93CF93DF9300D0AA
:101BC00000D000D0CDB7DEB7082F6B0180E591E0E3
:101BD0000E9493019E012F5F3F4F7901590110E050
:101BE00063E070E0812F0E944A0BF50181935F0151
:101BF000882341F11F5F143099F710E0F7018191BC
:101C00007F018D31D1F08831C1F08A518230A8F046
:101C10001F5F143099F7812F26960FB6F894DEBF18
:101C20000FBECDBFDF91CF911F910F91FF90EF902D
:101C3000DF90CF90BF90AF90089560E170E0812F6A
:101C40000E94670BE12EF12C83EE93E00197F1F7F0
:101C5000402F70E060E0812F0E948D074FEF62E01F
:101C600070E0812F0E948D07B601CD2889F4809104
:101C700000019091010101968115F0EC9F0798F108
:101C80009093010180930001609100017091010126
:101C9000812F0E94780761E070E0812F0E94670B1E
:101CA00027E02E9DC0012F9D900D11249C012154F1
:101CB0003C4F7901F9011182108222E030E0AE013F
:101CC0004B5F5F4F68E270E0812F0E94AC0C8D810A
:101CD0009E81982789279827F7019383828316820C
:101CE0001582148298CF80E090ECCACFCF92DF9219
:101CF000EF92FF921F93CF93DF93EC017B016A0178
:101D00008C85843048F40E949C0B882319F08C85C4
:101D10000E94770B84E08C87F70182819381A481F4
:101D2000B5810097A105B10551F490E080E0DF9105
:101D3000CF911F91FF90EF90DF90CF9008958F3F4C
:101D40009F4FAF4FBF4F89F38091DB03811103C0D9
:101D500084E08C87EACF70E060E081E20E94D50DDC
:101D6000182F8C87843008F780E591E00E9493015A
:101D7000A7014E5F5F4F24E030E06CE070E0812F00
:101D80000E945207B601812F0E94630764E070E051
:101D9000812F0E94670B0E9409036B017C018C85D7
:101DA0000E949C0B873109F18C31F9F0882309F4EA
:101DB000BCCF0E940903AB01BC014C195D096E093F
:101DC0007F098D859E85B0E0A0E084179507A60762
:101DD000B70738F061E070E080E090E00E94D60242
:101DE000DECF8C850E94830BB3CF81E090E09FCF44
:101DF0000F931F93CF93DF93EC018B01888D843079
:101E000010F40E94830B8091DB03811107C094E0E2
:101E1000988FDF91CF911F910F910895B80182E0C3
:101E20000E94D50D888F843030F41D870C871A8E60
:101E3000198E81E0EECF80E0ECCF7F928F929F925F
:101E4000AF92BF92CF92DF92EF92FF920F931F93C8
:101E5000CF93DF9300D0CDB7DEB7782E8B014A0148
:101E6000590122E030E0AE014F5F5F4F64E270E065
:101E70000E94AC0CE980FA80FE24EF24FE24E00EE0
:101E8000F11E970137704091DB03072D10E04333BB
:101E900009F042C0085F1F4F102F0027110F110FCC
:101EA000110FC901800F911F4733C9F1A9014A0DD4
:101EB0005B1D4130584098F160E078E06B01C21A38
:101EC000D30AA601B4010E948106A5014C195D093F
:101ED000B4016C0D7D1DC8010E948106EA0CFB1C3B
:101EE000F982EA8222E030E0AE014F5F5F4F64E2A8
:101EF00070E0872D0E9452070F900F90DF91CF91D5
:101F00001F910F91FF90EF90DF90CF90BF90AF9017
:101F10009F908F907F900895005F1F4FBDCFA501C8
:101F2000B401DACFEF92FF921F93CF93DF9300D0EB
:101F3000CDB7DEB7182F22E030E0AE014F5F5F4F24
:101F400060E270E00E94AC0CE980FA80FE24EF248D
:101F5000FE2422E030E0AE014F5F5F4F60E270E0B0
:101F6000812F0E94AC0C89819A8198278927982714
:101F7000E816F90689F487E0189FF0011124E1546E
:101F8000FC4FF582E482C7010F900F90DF91CF9153
:101F90001F91FF90EF9008957C01DBCF1F93CF93AB
:101FA000DF93182F80E591E00E949301812F0E941A
:101FB000920FEC0163E070E0812F0E944A0B8731A1
:101FC00021F08C3111F0D0E0C0E0CE01DF91CF9153
:101FD0001F910895CF93DF93EC018C85843060F4DA
:101FE0000E949C0B873111F08C3131F48C850E945A
:101FF000CE0F8115984088F3DF91CF910895FC01B1
:102000008485843010F40C94CE0F90E080E0089525
:102010009F92AF92BF92CF92DF92EF92FF920F9377
:102020001F93CF93DF938C015B01942EE52EFC016F
:10203000C688D788F08C80E591E00E9493018F2DAF
:102040000E94920FC92DDE2D8C179D0708F4EC011C
:102050009E01A501B6018F2D0E941D0FF8018689F2
:1020600097898C0F9D1F978B868BCE01DF91CF9127
:102070001F910F91FF90EF90DF90CF90BF90AF90A6
:102080009F9008958F929F92AF92BF92CF92DF92CE
:10209000EF92FF920F931F93CF936C015B018A0124
:1020A000FC01C485C430F0F57A014130584018F085
:1020B000E12C88E0F82E80E591E00E9493018C2FBE
:1020C0000E94920F4C0163E070E08C2F0E944A0B3B
:1020D000873111F08C3149F58E149F0460F380E54F
:1020E00091E00E9493019701A50170E060E08C2FC0
:1020F0000E941D0F60E270E08C2F0E94670B62E06F
:1021000070E08C2F0E944A0B84FD17C063E070E0E2
:102110008C2F0E944A0B81110BC081E090E0F601E8
:102120009383828310E000E010C0F12CE12CD7CF24
:1021300080E591E00E949301E2CF40E162E070E02F
:102140008C2F0E948D07EF2841F3C801CF911F917A
:102150000F91FF90EF90DF90CF90BF90AF909F9046
:102160008F900895FF920F931F93CF93DF9300D02A
:10217000CDB7DEB7F82E22E030E0AE014F5F5F4F03
:1021800066E270E00E94AC0C09811A8110270127D9
:10219000102722E030E0AE014F5F5F4F66E270E053
:1021A0008F2D0E94AC0C89819A81982789279827C6
:1021B0000817190749F4C8010F900F90DF91CF91CC
:1021C0001F910F91FF9008958C01E3CF1F93CF9340
:1021D000DF93182F87E0189FE0011124C154DC4FD2
:1021E00088819981009761F480E591E00E949301D4
:1021F000812F0E94B2102E81821B910999838883BE
:10220000DF91CF911F910895FC018485843010F4F3
:102210000C94E61090E080E008954F925F927F92D8
:102220008F929F92AF92BF92CF92DF92EF92FF92E6
:102230000F931F93CF93DF9300D0CDB7DEB7782EE7
:102240006B014A01A82EB12C27E0829FC001112406
:10225000FC01E154FC4F7F010081118180E591E098
:102260000E9493010815190554F4872D0E94B2109D
:10227000F70126818C01021B1109118300830115CE
:10228000110529F563E070E0872D0E944A0B843127
:1022900059F0882349F001E010E08C3111F410E08E
:1022A00000E0119501951109C8010F900F90DF9181
:1022B000CF911F910F91FF90EF90DF90CF90BF9043
:1022C000AF909F908F907F905F904F900895801671
:1022D00091060CF4840187E08A9DF0018B9DF00D3E
:1022E0001124E154FC4FE280F380C114D10451F178
:1022F0002701F7E05F22872D0E944407840D951D7A
:102300002091DB03273309F453C09801240D351DB8
:102310002130384008F44CC020E038E049018418EE
:102320009508A401B6010E94BF0A2601480C591C59
:102330006801C818D908872D0E944407A601B20178
:102340000E94BF0AE00EF11E87E08A9DF0018B9D7E
:10235000F00D1124E154FC4FF382E282208131819F
:10236000201B310B318320838681800F912F911D9B
:102370008A3F910510F4232BF1F487E08A9DF00148
:102380008B9DF00D1124E154FC4F1682F982EA82F4
:1023900022E030E0AE014F5F5F4F68E270E0872DD2
:1023A0000E94520760E470E0872D0E94670B7CCF8B
:1023B000A801B601C5CF868377CFCF93DF93FC0109
:1023C000218D328D2115310529F48FEF9FEFDF919B
:1023D000CF910895EC01808D4217530708F0A901B1
:1023E0000E940D111816190684F7298D3A8D281BA5
:1023F000390B3A8F298FEBCF0F931F93CF93DF9336
:102400001F92CDB7DEB7FC01218D328D232B41F415
:102410008FEF9FEF0F90DF91CF911F910F91089554
:102420008C0141E050E0BE016F5F7F4FFC01808D69
:102430000E940D11181619065CF7F801818D928D16
:102440000197928F818F898190E0E4CFCF93DF93C2
:102450001F92CDB7DEB741E050E0BE016F5F7F4F06
:10246000FC0184850E940D111816190634F4898127
:1024700090E00F90DF91CF9108958FEF9FEFF9CF0C
:10248000FC018485843010F40C940D1190E080E000
:1024900008950F931F93CF93DF9300D0CDB7DEB78E
:1024A000FC0124852430E0F48C0180E591E00E9459
:1024B000930122E030E0AE014F5F5F4F60E170E0DA
:1024C000F80184850E94AC0C89819A81982789271C
:1024D00098270F900F90DF91CF911F910F91089542
:1024E00090E080E0F6CF0F931F93CF93DF9300D05F
:1024F000CDB7DEB7FC0124852430E0F48C0180E503
:1025000091E00E94930122E030E0AE014F5F5F4F07
:1025100064E070E0F80184850E94AC0C89819A81A6
:102520009827892798270F900F90DF91CF911F91BF
:102530000F91089590E080E0F6CFDC018AEA91E007
:102540008D939D9384E0FB0101900D928A95E1F7B4
:102550000895EF92FF920F931F93CF93DF9300D0D4
:1025600000D0CDB7DEB78C017B01FB0184858430C0
:10257000A8F08AEA91E0F8019183808312821382A5
:1025800014821582C8010F900F900F900F90DF9169
:10259000CF911F910F91FF90EF90089580E591E00A
:1025A0000E94930124E030E0AE014F5F5F4F6CE08A
:1025B00070E0F70184850E94AC0CBE016F5F7F4F15
:1025C000C8010E949D12DECF0F931F93CF93DF931C
:1025D000CDB7DEB728970FB6F894DEBF0FBECDBFDC
:1025E0008C01D80159964D915C915A97411551052E
:1025F00051F0ED91FC91048CF58DE02D70E060E0E0
:10260000C8010995EECFF801808D0E94E610892B54
:10261000B1F148E050E0BE016F5F7F4FD80158969E
:102620008C910E940D1118161906F4F4D8015096D9
:1026300084E0FE01319601900D928A95E1F78D813B
:1026400090E0982F88272E81820F911DF801958B9D
:10265000848B8F81282F30E0322F22278885820FAC
:10266000932F911D928F818F28960FB6F894DEBF1D
:102670000FBECDBFDF91CF911F910F91089590E0D4
:1026800080E0F2CF4F925F926F927F928F929F92F3
:10269000AF92BF92CF92DF92EF92FF920F931F9370
:1026A000CF93DF93CDB7DEB763970FB6F894DEBF55
:1026B0000FBECDBF7C016B013A01FB0120E090E031
:1026C00080E06AE03191332309F461C040ED430FAB
:1026D0004A3008F04DC0689FA001699F500D112439
:1026E000CA01C097830F911D37FD9A958F3F9105C1
:1026F00049F340F3F70142815381648175818091F0
:10270000B1049091B204A091B304B091B4044817FD
:1027100059076A077B0709F40DC28701085F1F4F3D
:102720000E9409036F7077277C5FC8010E94F80E32
:10273000813009F004C28AEA91E09A838983F70123
:1027400082819381A481B5818B839C83AD83BE8379
:1027500045E350E0BE016F5F7F4FC8010E94E30771
:10276000892BA9F5D12CC12CC8010E948F0B17C051
:102770003E3209F0BFCF233009F4BCCFD301A20F02
:10278000B11D12968C932F5F90E080E09BCF233099
:1027900009F0B0CFF3018583CC24C394D12CC601BA
:1027A00063960FB6F894DEBF0FBECDBFDF91CF9119
:1027B0001F910F91FF90EF90DF90CF90BF90AF905F
:1027C0009F908F907F906F905F904F9008950E94A0
:1027D0000903F7017783668342E050E0B7016A5F3F
:1027E0007F4FC8010E94081081E090E09A8389839E
:1027F00042E050E0BE016F5F7F4FC8010E940810A9
:1028000080E091E09A83898342E050E0BE016F5FEF
:102810007F4FC8010E9408101A82198242E050E0DE
:10282000BE016F5F7F4FC8010E94081042E050E078
:10283000BE016F5F7F4FC8010E94081042E050E068
:10284000BE016F5F7F4FC8010E9408105601F6015C
:102850008081882301F16501F60181912F01882390
:1028600011F08E32B1F446018A189B08181419042D
:1028700074F48D8641E050E0BE01635F7F4FC80174
:102880000E940810A401B501C8010E94081052015D
:10289000DECF6201E1CF1D8641E050E0BE01635F03
:1028A0007F4FC8010E940810C12CDD24D394DA8226
:1028B000C98242E050E0BE016F5F7F4FC8010E94B5
:1028C0000810DA82C98242E050E0BE016F5F7F4F9C
:1028D000C8010E940810C8010E94030C892B09F44A
:1028E00041CFF3E0AF2EB12C230122E0420E511C68
:1028F000D4C0F7014281538164817581808D918DAF
:10290000A28DB38D481759076A077B0709F008C1E4
:10291000848D958DC59709F003C181A192A15DEFCA
:10292000C52EDD24DA940C970CF4ADC04CE050E0D9
:10293000BE016F5F7F4FC8010E94DD118B819C81BA
:102940009827892798279A8B898BF7014681578189
:1029500029813A814217530709F0E7C097FFE5C084
:102960008F7092703BEFC32EDD24DA94892B09F02F
:102970008AC06F8078847624672476242AEFC22E5A
:10298000DD24DA946114710409F47DC0D12CC12CCA
:102990008D819E81982789279827C816D906F8F433
:1029A00041E050E0BE01635F7F4FC8010E94DD112E
:1029B0004D85442331F050E070E060E0C8010E9492
:1029C000DD118D858111ECCF44E050E070E060E0D6
:1029D000C8010E94DD11FFEFCF1ADF0AD9CF912C79
:1029E000812C41E050E0BE016D5E7F4FC8010E9426
:1029F000DD114B89842F807C09F06CC0442331F0B9
:102A000050E070E060E0C8010E94DD118B89811107
:102A1000E8CF42E050E0BE01615F7F4FC8010E94F5
:102A2000DD1142E050E0BE01635F7F4FC8010E94AC
:102A3000DD1144E050E070E060E0C8010E94DD116B
:102A400042E050E0BE016F5E7F4FC8010E94DD1181
:102A50008F85988949895A898115914009F043C029
:102A6000CD84DE84DC24CD24DC2481E0C816D104AE
:102A7000D1F54115544009F04AC044E050E0B2019C
:102A8000C8010E94DD1121E0A21AB10809F46CCE40
:102A9000FFEFCF16DF0609F067CE0E9409033B0166
:102AA0004C01C8010E94E412181619060CF421CF3B
:102AB0000E940903661977098809990969387341E1
:102AC0008105910548F562E370E080E090E00E94A6
:102AD000D602E7CF41E050E070E060E0C8010E941C
:102AE000DD111B8A93CF54274527542770E060E0FF
:102AF000C8010E94DD11FFEF8F1A9F0A6814790444
:102B000009F06FCF96EFC92EDD24DA94BCCFE7EF42
:102B1000CE2EDD24DA94B7CFCC24CA94DC2CB3CFEC
:102B20006EEFC62EDD24DA94AECF4CEFC42EDD243A
:102B3000DA94A9CF8EEFC82EDD24DA9430CED12CD2
:102B4000C12C2DCECF92DF92EF92FF920F931F9365
:102B5000CF93DF93CDB7DEB7AF970FB6F894DEBF54
:102B60000FBECDBF7C016A010AEA11E01A83098316
:102B70001C861B8688EE93E0A0E0B0E08D879E87E0
:102B8000AF87B88B8EE191E09A878987188F0F8B7A
:102B9000198E1A8E1B8E1C8E84E089A31BA70AA790
:102BA0001CA61DA61EA61FA68091A5049091A60492
:102BB000A091A704B091A8048EA39FA3A8A7B9A72A
:102BC0008B839C83AD83BE8318861F82AE01465DD6
:102BD0005F4FCE0101960E94421381309105B1F4FE
:102BE000D701ED91FC910488F589E02D1DA30CA37C
:102BF0008CA59DA5AEA5BFA58EA39FA3A8A7B9A789
:102C0000A601BE016C5D7F4FC7010995AF960FB657
:102C1000F894DEBF0FBECDBFDF91CF911F910F9112
:102C2000FF90EF90DF90CF900895CF92DF92EF92D8
:102C3000FF920F931F93CF93DF93CDB7DEB7AF977C
:102C40000FB6F894DEBF0FBECDBF8C016B017A01C9
:102C50008AEA91E09A8389831B821C821D821E82EC
:102C60001C861B8648EE53E060E070E04D875E876F
:102C70006F87788B2EE131E03A872987988F8F8B89
:102C8000198E1A8E1B8E1C8E24E029A39BA78AA75F
:102C90001CA61DA61EA61FA6D8011C968C918430CA
:102CA00060F40E949C0B882321F0F80184850E9427
:102CB000770B84E0D8011C968C938091A5049091A9
:102CC000A604A091A704B091A8048EA39FA3A8A7CF
:102CD000B9A78B839C83AD83BE8318861F82AE0108
:102CE000465D5F4FB601CE0101960E9442130097E8
:102CF000C1F0D801ED91FC910684F785E02D8AEAB8
:102D000091E09DA38CA38CA59DA5AEA5BFA58EA388
:102D10009FA3A8A7B9A7A701BE016C5D7F4FC801FB
:102D20000995AF960FB6F894DEBF0FBECDBFDF9109
:102D3000CF911F910F91FF90EF90DF90CF9008956A
:102D40000F931F93CF93DF93EC01FB0101900020C1
:102D5000E9F78F01061B170B8A819B81A801480F99
:102D6000591F2C813D812417350768F0288139814E
:102D7000A801820F931F0E94DB344A815B81400FC0
:102D8000511F5B834A83DF91CF911F910F9108956B
:102D900085ED8093BC008091120390911303A09164
:102DA0001403B09115030796A11DB11D23E0B6953C
:102DB000A795979587952A95D1F72091BC0024FD7A
:102DC00003C0109210030895409112035091130311
:102DD0006091140370911503452B462B472B69F323
:102DE0000097A105B10541F02AE22A95F1F700C04C
:102DF0000197A109B109E1CF809111030C94BE04A0
:102E00003F924F925F926F927F928F929F92AF927A
:102E1000BF92CF92DF92EF92FF920F931F93CF93C7
:102E2000DF93CDB7DEB7EA970FB6F894DEBF0FBEDB
:102E3000CDBF7C012A013B0169010E9409034B01BE
:102E40005C0187010D5B1F4FC8010E94E412181638
:102E500019069CF00E940903681979098A099B09DF
:102E6000461657066806790608F466C162E370E004
:102E700080E090E00E94D602E7CF42E250E0BE013F
:102E80006F5F7F4FC8010E94DD1189818230D1F0D0
:102E9000312C832DEA960FB6F894DEBF0FBECDBF5E
:102EA000DF91CF911F910F91FF90EF90DF90CF9026
:102EB000BF90AF909F908F907F906F905F904F905A
:102EC0003F900895F801848995898334910501F72D
:102ED0006D817E818F8198850E9456344B015C0103
:102EE000F60180829182A282B38246E050E0B7016F
:102EF000685F7F4FCE014D960E94CE34892B41F6FC
:102F0000F70180819181A281B38188169906AA0672
:102F1000BB0608F4BDCF84819581A681B781881551
:102F20009905AA05BB0508F4B3CF89899A89AB89AD
:102F3000BC8986879787A08BB18B4EEC50E070E000
:102F400060E0C8010E94DD11312CC701829698AB68
:102F50008FA7F701B696FAABE9AB08969CAB8BABA3
:102F600067019AE1C90ED11CBD96FEABEDABC7015E
:102F7000429698AF8FABFD97FAAFE9AF4701FEE1FC
:102F80008F0E911CF801818D928D181619060CF088
:102F900080CFC8010E94FC118333910509F4B2C0AF
:102FA00014F58130910509F464C044F4892B51F380
:102FB000C8010E94FC11AC01552775C083309105F2
:102FC00009F462C00697A1F7C8010E94FC11B82E4F
:102FD00044E050E0B401C8010E94DD11EB2DE45043
:102FE000FF0BAF0160C08A33910509F45FC084F51F
:102FF00085339105B1F1C697D9F6C8010E94FC113D
:103000005C01B601CE0189960E949D128BA59CA5FC
:10301000ADA5BEA5892B8A2B8B2BB1F0EDA9FEA9FE
:103020004080518062807380B601CE0183960E94F9
:103030009D128DA19EA1AFA1B8A5A5014816590664
:103040006A067B0609F0B8CF44E050E0B60118C02C
:103050008B33910509F440C08F3F910509F492CF5D
:10306000A7CFC8010E94FC11C8010E94FC11382E94
:1030700089CFC8010E94FC1144E050E06FA978ADEF
:10308000C8010E94DD117ECFC8010E94FC11B82E3C
:1030900044E050E069AD7AADC8010E94DD118B2D8E
:1030A0008450990BAC0170E060E0EACFC8010E9447
:1030B000FC1144E050E069A97AA9C8010E94DD1121
:1030C000F70166A177A180A591A50E94563466A359
:1030D00077A380A791A756CFC8010E94FC1144E0B6
:1030E00050E06BA97CA9C8010E94DD11F70162A51F
:1030F00073A584A595A50E94563462A773A784A7DB
:1031000095A740CFC8010E94FC1144E050E06FA594
:1031100078A9C8010E94DD11F70162A173A184A101
:1031200095A10E94563462A373A384A395A366A7B6
:1031300077A780AB91AB26CF33243A94AACE7F9267
:103140008F929F92AF92BF92CF92DF92EF92FF92B7
:103150000F931F93CF93DF93CDB7DEB7A6970FB62C
:10316000F894DEBF0FBECDBF8C01762E942E852E37
:1031700020E2A22ECE0101967C01DC01EA2D1D92F7
:10318000EA95E9F76801F3E4CF0ED11C8AEA91E0F1
:103190009AA389A38FEF8BA38CA38DA38EA343E463
:1031A00050E0BE016F5D7F4FC6010E94E3070196AC
:1031B00009F4BFC081E089838A8386E0B82EBB8290
:1031C0001C82D80114966D917D918D919C911797D9
:1031D0000E9456346D837E838F83988789869A8672
:1031E00080E890E09C878B874CE150E0B701C601F6
:1031F0000E940810FE0137968AE1DF011D928A9530
:10320000E9F74801B8E08B0E911CF401D701019059
:103210000D92BA94E1F740E150E0B701C6010E9477
:103220000810F7011192AA94E9F796E0A92EB12CA3
:1032300040E250E0B701C6010E940810F1E0AF1A69
:10324000B108B1F783E6898392E89A8393E59B837B
:103250008C8385E38D8381E08E837F829DE39887D5
:1032600097E099878A8786E0F401DE011B9601903A
:103270000D928A95E1F78CE0898B8A8B67EF71E07C
:10328000CE0143960E94F434D8011B966C91CE0176
:1032900049960E949601F8016485CE014B960E94E2
:1032A0009601D8011D966C91CE014D960E94960113
:1032B0004EE150E0B701C6010E940810B3E07B1256
:1032C0001EC082E3898384E08A83F80196859B830C
:1032D00097859C8390899D8391899E8396E39F83A4
:1032E0008887828D8987838D8A87848D8B87858D5A
:1032F0008C874CE050E0B701C6010E94081087E3BC
:10330000898386E08A8391E09B8393E09C838D830D
:103310008FE08E838AE38F838BE388878FEF8987A3
:1033200049E050E0B701C6010E940810C6010E94A2
:10333000030CA6960FB6F894DEBF0FBECDBFDF918B
:10334000CF911F910F91FF90EF90DF90CF90BF90A2
:10335000AF909F908F907F9008950F931F93CF937E
:10336000DF93CDB7DEB728970FB6F894DEBF0FBE58
:10337000CDBF8C01CB014AE0BE016F5F7F4F0E9441
:10338000E72EBE016F5F7F4FC8010E94A0162896EE
:103390000FB6F894DEBF0FBECDBFDF91CF911F9166
:1033A0000F9108953F924F925F926F927F928F920A
:1033B0009F92AF92BF92CF92DF92EF92FF920F93C4
:1033C0001F93CF93DF93CDB7DEB7A1970FB6F894D5
:1033D000DEBF0FBECDBF5C010DB71EB719A308A39A
:1033E00060E070E0CB010E94D602D50191968D91EC
:1033F0009C919297912C029709F498C090968C9189
:1034000090978F5F90968C9390975E962D913C91BC
:10341000232B19F09924939482C08330D8F7F501B7
:10342000828593850E94CE08882309F440C38E01CB
:103430000F5F1F4F3801D5011A96ED91FC918081E5
:103440009181DC01ED91FC910084F185E02D0995DD
:10345000181619060CF02BC3D5011A96ED91FC91A4
:1034600045E050E0BE01695E7F4F808191810E94FE
:103470001703009701F3059709F04AC0888D998DCD
:10348000982789279827998F888FEA8CFB8CFE24B0
:10349000EF24FE24FB8EEA8E892BD1F18F898111D6
:1034A0006AC00E940903F501608B718B828B938B3C
:1034B00021A132A14A8D5B8D232B09F057C0288DA5
:1034C000398D2130310509F051C049305105E1F005
:1034D000483C510519F044305105D1F4D5015896B6
:1034E0006D937D938D939C935B97E1E0F0E09296D2
:1034F000FC93EE939197C5010E94952360E070E0E4
:10350000CB010E94D60297CF83E090E092A381A3E3
:10351000D5011A968D919C910E94E108912CD501BC
:1035200090968C919097815090968C93892DE8A1DC
:10353000F9A10FB6F894FEBF0FBEEDBFA1960FB66E
:10354000F894DEBF0FBECDBFDF91CF911F910F91D9
:10355000FF90EF90DF90CF90BF90AF909F908F90B3
:103560007F906F905F904F903F9008954530510548
:1035700009F061CFCDCFF50182859385F1E0EF169B
:10358000FF0640F0D50192961C921E9291970E94E0
:10359000E10851CF8DB69EB697012F5F3F4FEDB733
:1035A000FEB7E21BF30B0FB6F894FEBF0FBEEDBFE4
:1035B0000DB71EB70F5F1F4FA701B801DC018D913A
:1035C0009C910E9417038E159F0509F05FC0EA8D3C
:1035D000FB8DE00FF11F10820E940903F501608B43
:1035E000718B828B938B8F89843109F4ABC0E8F4A3
:1035F0008F3009F4A7C0813109F43CC2863009F04C
:103600004EC2488D598DD12CC12CF12CE12C08ECE7
:1036100010E030E020E060E0C5010E944A1E0FB6D5
:10362000F8949EBE0FBE8DBE06CF8932C9F0873397
:10363000B1F38D3109F033C2D50181A192A1892B5B
:1036400001F7E1E0F0E09296FC93EE939197C501CB
:103650000E94952360E070E0CB010E94D602D1CF9A
:1036600086859785892B39F480E490E00E94D02CE0
:10367000F50197878687EA8CFB8CE00EF11E1A8392
:103680000983FC82EB820E151F0530F00FB6F8940B
:103690009EBE0FBE8DBE3CCF40E450E0B801D501C8
:1036A0001E968D919C910E94FB34D5011E96ED9142
:1036B000FC9117AEC3010E947323FC0180819181AC
:1036C00000E510E08E159F0560F489819A810097CE
:1036D000A9F12B813C818217930780F50E94B72EB8
:1036E0008B01D5011A968D919C910E94E108D5011C
:1036F0001A96ED91FC911B971E968D919C911F97A8
:10370000918780871387028792961C921E929197C9
:103710000E940903DC01CB0188589341A109B1093A
:10372000F501848B958BA68BB78B808B918BA28BAD
:10373000B38B808F918FA28FB38F71CF60E070E0D9
:10374000CB01CECF888D998DD5015F969C938E93BA
:103750005E974A8C5B8C6801C40CD51C1D8F0C8F46
:10376000DF8ECE8E0C151D0508F013C1F801E08028
:10377000F180CE014C960E947323DC018D919C91C7
:103780008C159D0508F005C18C8D9D8DFC01208157
:10379000213459F401960E94992E4EE0342E380EB1
:1037A000069744F033243A9405C0CE014C960E940B
:1037B0008623382EF6E7EF16F2E7FF0609F406C176
:1037C00038F531E6E31632E7F30609F4E6C044E6DD
:1037D000E41642E7F40609F478C050E7E5165DE622
:1037E000F50609F039C18C8D9D8D8C159D0508F06D
:1037F000D0C0FC0120812134A9F501960E94992EA8
:103800003EE0F32EF80E069794F1FF24FA942FC0B1
:1038100084E6E81687E7F80609F4A2C096E7E916F9
:1038200097E7F90609F4EAC0A1E6EA16A7E7FA065F
:1038300009F012C1CE014C960E947323DC018D91D8
:103840009C918C159D0508F0A4C061E0832D0E9419
:103850000302CE014C960E948623BC01832D0E9458
:103860003F0297C0CE014C960E948623F82ECE01CF
:103870004C960E9473230C8D1D8D6EEF71E0C80174
:103880000E94EB3460E0892B79F061E072E0C801BE
:103890000E94EB34892B39F065E072E0C8010E9488
:1038A000EB34892B49F461E08F2D0E940302CE0195
:1038B0004C960E94732397CF69E072E0C8010E9482
:1038C000EB34892BA1F762E0EFCF7A8A698A1C8AF0
:1038D0001B8A00E110E01E8B0D8B6CE072E0CE01C4
:1038E00041960E94A016032D10E0B801CE0141962A
:1038F0000E94AD19F801E85CFD4F8491F801EC5D80
:10390000FD4FF490005F1D4FF801049160E070E0FE
:10391000002389F081110E94AC01E02FF0E0EE0F4E
:10392000FF1FEA5FFD4FA591B491EC91FE2261E08B
:1039300070E009F460E0CE0141960E94AD190B8958
:103940001C890150110929893A89D12CC12CF12CEB
:10395000E12C50E040E064E1C5010E944A1E19C01C
:10396000CE014C960E947323DC018D919C918C15A5
:103970009D0578F461E0832D0E940302CE014C96F0
:103980000E94862361E0892B09F460E0832D0E9468
:10399000D501F501178E168E42CE7A8A698A1C8A65
:1039A0001B8AE0E1F0E0FE8BED8B6FE072E0CE0170
:1039B00041960E94A016632D70E0CE0141960E94B0
:1039C000AD19832D0E949C02BC01B5CFE32DF0E020
:1039D000FA83E983BFE1B315E0F2EE0FFF1FE45B6A
:1039E000FD4F259134912115310599F2E1E02239FD
:1039F0003E0779F2C301F9010995CBCFCE014C9670
:103A00000E9473238C8D9D8D9C01201B310B421ACB
:103A1000530A9A8389835C824B825E824D82E32DB6
:103A2000F0E0FA8BE98B0FE1031508F4B2CFEE0F4B
:103A3000FF1FE457FD4F259134912115310509F4FD
:103A4000A8CF11E02139310709F4A3CFB301CE018A
:103A50004196F90109959DCFD5015E964D915C91F6
:103A6000D12CC12CF12CE12C02E010E030E020E060
:103A700060E072CF8A8D9B8D800F911F1A8309831E
:103A80009C838B830817190708F0C9CDC3010E94D6
:103A90007323D5015F961C921E925E97C0CDF501EF
:103AA00012A211A2828593850E94E108B8CD0E94DE
:103AB00009032B013C01F501828593850E94CE0804
:103AC000D50191962D913C912130310509F05EC0D0
:103AD000F501811109C0408E518E628E738E12A243
:103AE00011A28285938518CD80899189A289B38995
:103AF00093018201081B190B2A0B3B0BD901C8014A
:103B0000893116EF9107A105B10548F7893C9F4A15
:103B1000A105B10590F484899589A689B789930197
:103B20008201081B190B2A0B3B0BD901C801893CE8
:103B30009F4AA105B10508F46DCCF501808D918DEA
:103B4000A28DB38D93018201081B190B2A0B3B0B2D
:103B5000D901C80181379741A105B10508F45ACCB4
:103B6000D12CC12CF12CE12C10E000E030E020E061
:103B700050E040E066E0C5010E944A1ED50158961B
:103B80004D925D926D927C925B9744CC232B09F011
:103B900041CCF501408D518D628D738D9301820171
:103BA000041B150B260B370BB901A801882381F0E4
:103BB000413757416105710508F42CCC8285938506
:103BC0000E94E108D50192961C921E929197A6CC74
:103BD000493853416105710508F41CCC82859385F1
:103BE0000E94E108D5011A960D911C91F801628599
:103BF0007385C8010E948708D8011C968C931C9776
:103C000081110DC01A968D919C918035910599F482
:103C100060E97FE1C8010E948708F8018487F80104
:103C20009484911014C0D50158964D925D926D9276
:103C30007C925B9774CC80399F4189F760E570E096
:103C4000C8010E948708D8011C968C93E8CF81E0B8
:103C500090E0F501958F848F24853585F9010190D9
:103C60000020E9F731978F01021B130BD12CC12CD7
:103C7000F12CE12C41E050E06DE1C5010E944A1EAB
:103C8000F50184899589A689B789808F918FA28F44
:103C9000B38F45CC2F923F924F925F926F927F925B
:103CA0008F929F92AF92BF92CF92DF92EF92FF924C
:103CB0000F931F93CF93DF93CDB7DEB7C854D109CD
:103CC0000FB6F894DEBF0FBECDBF4C0168AF5AAF40
:103CD00049AF27963FAF2EAF279721961FAF0EAF64
:103CE00021972996FFAEEEAE29972396DFAECEAE92
:103CF0002397DC011A968D919C910E94CE0888230F
:103D000009F4B7C1B8ADBB2351F0B63041F0BD31B5
:103D100031F0F40181A192A1019709F0AAC188AD07
:103D20008F508630A0F5D40154964D915D916D91E0
:103D30007C9157975096CD90DD90ED90FC905397E5
:103D4000C416D506E606F70610F46A017B01B2E454
:103D5000CB0ED11CE11CF11C0E940903A7019601A6
:103D6000261B370B480B590BDA01C901B7FD9BC164
:103D7000C4010E94D2190E940903A7019601261BC3
:103D8000370B480B590BDA01C901B7FFF1CFF4012A
:103D900080819181019709F0B2C082E090E0918327
:103DA000808322813381448155816681778180853A
:103DB0009185A0E0FE017A960E94BC3409F486C188
:103DC000FBABEAAB1DAA1CAA88E190E09FAB8EABCF
:103DD0006CEF71E0CE01C2960E94A016D40112963B
:103DE0004C90129713965C90139714966C901497BE
:103DF00015967C9015971696BC91BBAFF401F78190
:103E0000FCAFD40118962C90189719963C90198EF7
:103E10009201A3016BAD7F2FC101A0E00E94BC34D1
:103E200009F44AC1FE0179962596FFAFEEAF2597BA
:103E300027E130E03EAF2DAF8AE0A82EB12CC12C97
:103E4000D12CE12CF12C00E010E09201A3016BAD2C
:103E50007CADC1010E945D34F901EC5EFD4F8081B3
:103E60002596AEADBFAD25978E932596BFAFAEAF6D
:103E70002597EDADFEAD3197FEAFEDAF9AE0A92EDF
:103E8000B12CC12CD12CE12CF12C00E010E09201DE
:103E9000A3016BAD7CADC1010E945F3429013A01E1
:103EA0006BAF7CAF1C01A0E00E94BC3421F04DAD93
:103EB0005EAD452B09F66DAD7EAD6C0F7D1F6E5F5F
:103EC0007F4F09F0FEC0EAA9FBA98CA99DA99C011E
:103ED0002F5F3F4F3DAB2CABE80FF91F10820CA9B1
:103EE0001DA9015011092AA93BA9D12CC12CF12CE3
:103EF000E12C50E040E065E1C4010E944A1E29AD7A
:103F00003AAD232BB9F4D4015E960D90BC91A02D4F
:103F1000BAAFA9AFAB2B71F4F401848D958D0196E6
:103F200009F4E9C0958F848FF401048CF58DE02DA0
:103F3000FAAFE9AF27962EAD3FAD279721960EAD8C
:103F40001FAD21970B5F1F4F232B11F405E010E0ED
:103F500029964EAD5FAD299790E080E0452B21F08A
:103F600023968EAD9FAD2397080F191F58AD598327
:103F700089AD9AAD9827892798279B838A832196B4
:103F80008EAD9FAD21972396AEADBFAD23978A0F1F
:103F90009B1F9827892798279D838C83D4011A9685
:103FA000ED91FC9180819181DC01ED91FC91028089
:103FB000F381E02D45E050E0BE016F5F7F4F099532
:103FC0007C0160E070E0CB010E94D602B8ADBB235B
:103FD00009F444C02196EEADFFAD2197EF2BE1F03F
:103FE000D4011A96ED91FC9180819181DC01ED91D3
:103FF000FC910280F381E02D21964EAD5FAD2197BB
:1040000027966EAD7FAD27970995E80EF91E60E003
:1040100070E0CB010E94D6022396EEADFFAD239750
:10402000EF2BE1F0D4011A96ED91FC918081918102
:10403000DC01ED91FC910280F381E02D23964EADE1
:104040005FAD239729966EAD7FAD29970995E80E50
:10405000F91E60E070E0CB010E94D602E016F10686
:1040600009F44EC0F40112A211A2828593850E9428
:10407000E108C85BDF4F0FB6F894DEBF0FBECDBFBF
:10408000DF91CF911F910F91FF90EF90DF90CF9034
:10409000BF90AF909F908F907F906F905F904F9068
:1040A0003F902F900895D40190968C9181116FCEFE
:1040B000C4010E94D2196BCE80E3888FBE01685E76
:1040C0007F4FCE01C2960E94A01609CFFA83E983E2
:1040D0001C821B8284E090E09E838D8362E172E00B
:1040E000CE0101960E94A0160B811C81015011097E
:1040F00029813A81FACE81E090E0958F848F14CFA8
:104100000E940903D40154966D937D938D939C93E3
:104110005797AFCFCF92DF92EF92FF920F931F93FB
:10412000CF93DF93CDB7DEB7C658D1090FB6F89459
:10413000DEBF0FBECDBF7C018B01CE010196CF57F4
:10414000DF4F99838883C158D040CD57DF4F198204
:104150001882C358D04080E890E0CB57DF4F998356
:104160008883C558D04068E372E0CE018F579F4FD7
:104170000E94A016B701CE018F579F4F0E94AD1924
:10418000B801CE018F579F4F0E94AD19CD57DF4F19
:1041900008811981C358D04001501109CF57DF4F12
:1041A00028813981C158D040D12CC12CF12CE12C6F
:1041B00050E040E064E189E795E00E944A1ECA575A
:1041C000DF4F0FB6F894DEBF0FBECDBFDF91CF91AA
:1041D0001F910F91FF90EF90DF90CF9008958F92F5
:1041E0009F92AF92BF92CF92DF92EF92FF920F9386
:1041F0001F93CF93DF93CDB7DEB7C75AD1090FB660
:10420000F894DEBF0FBECDBF0E943C086B017C015D
:10421000CE0101964C01CE55DF4F99838883C25A57
:10422000D040CC55DF4F19821882C45AD04020E8C4
:10423000A22EB12CCA55DF4FB982A882C65AD040EF
:1042400068E372E08F559F4F0E94A01661E070E016
:10425000CE018E559F4F0E94AD198E010F571F4FF3
:1042600023E045E0C701B6010E94B22CB801CE019F
:104270008E559F4F0E94A016CC55DF4F08811981A3
:10428000C45AD04001501109CE55DF4F28813981E1
:10429000C25AD040D12CC12CF12CE12C50E040E08E
:1042A00064E189E795E00E944A1E0E9460088C0143
:1042B000CE55DF4F99828882C25AD040CC55DF4F0D
:1042C00019821882C45AD040CA55DF4FB982A882D9
:1042D000C65AD04068E372E0CE018E559F4F0E94CF
:1042E000A01667E070E0CE018E559F4F0E94AD1979
:1042F0004AE0BE016F577F4FC8010E940F2FBE01D9
:104300006F577F4FCE018E559F4F0E94A016CC5500
:10431000DF4F08811981C45AD04001501109CE5590
:10432000DF4F28813981C25AD04050E040E064E13B
:1043300089E795E00E944A1EC955DF4F0FB6F894F1
:10434000DEBF0FBECDBFDF91CF911F910F91FF90C8
:10435000EF90DF90CF90BF90AF909F908F90089597
:104360000C946C2D1F920F920FB60F9211242F9365
:104370003F938F939F93AF93BF938091B703909197
:10438000B803A091B903B091BA033091B60323E00A
:10439000230F2D3758F50196A11DB11D2093B603AB
:1043A0008093B7039093B803A093B903B093BA0373
:1043B0008091BB039091BC03A091BD03B091BE035B
:1043C0000196A11DB11D8093BB039093BC03A093E4
:1043D000BD03B093BE03BF91AF919F918F913F9169
:1043E0002F910F900FBE0F901F90189526E8230F66
:1043F0000296A11DB11DD2CF1F920F920FB60F9240
:1044000011242F933F934F935F936F937F938F93D9
:104410009F93AF93BF93EF93FF938CED93E00E9434
:10442000E503FF91EF91BF91AF919F918F917F91A4
:104430006F915F914F913F912F910F900FBE0F9011
:104440001F9018951F920F920FB60F9211242F9361
:104450008F939F93EF93FF93E091EC03F091ED0323
:104460008081E091F203F091F30382FD1BC0908103
:104470008091F5038F5F8F732091F603821741F0CF
:10448000E091F503F0E0E452FC4F958F8093F50343
:10449000FF91EF919F918F912F910F900FBE0F90F1
:1044A0001F9018958081F4CF1F920F920FB60F9234
:1044B00011242F933F934F935F936F937F938F9329
:1044C0009F93AF93BF93EF93FF938091B900887F41
:1044D000803609F44AC0F0F5883209F4A7C018F50F
:1044E000803109F49BC0B8F4882309F4F9C08830FE
:1044F00009F494C0FF91EF91BF91AF919F918F917B
:104500007F916F915F914F913F912F910F900FBECF
:104510000F901F901895883109F488C0803251F7A8
:1045200080930E0314C0803409F49DC040F480339E
:10453000B9F38833F9F680930E0385ECB0C080356B
:1045400009F485C0883509F496C0883499F60E942C
:10455000C816D0CF883909F48CC038F5883729F0CF
:1045600050F4883611F0803729F683E080931003E9
:104570001092E90257C0883809F47BC0803919F0DD
:10458000803809F0B7CF8091E902803208F071C01D
:10459000E091E90281E08E0F8093E9028091BB00F7
:1045A000F0E0E753FD4F80833DC0803B39F0E0F4FD
:1045B000803A09F479C0883A09F09CCF84E080936E
:1045C00010031092C8021092C702E091A803F09164
:1045D000A90309958091C70281110FC081E08093E2
:1045E000C7021092A70209C0803C09F4A6CF883CFC
:1045F00009F4A3CF883B09F07DCFE091C80281E0A8
:104600008E0F8093C802F0E0E955FD4F80818093C2
:10461000BB009091C8028091C70229C08091EB0233
:104620008093BB0085EC8093BC0064CF90910D0318
:1046300080910C03981758F5E0910D0381E08E0FDF
:1046400080930D03F0E0E451FD4F8081E9CFE091CC
:104650000D0381E08E0F80930D038091BB00F0E08D
:10466000E451FD4F808390910D0380910C039817C6
:10467000C8F285E8D8CFE0910D0381E08E0F8093DA
:104680000D038091BB00F0E0E451FD4F80838091E9
:104690000F0381115CCF81E08093EA0284EA80936A
:1046A000BC001092100326CF85EC8093BC001092C2
:1046B00010038091E902803230F4E091E902F0E0E9
:1046C000E753FD4F10826091E90270E0E091A6038C
:1046D000F091A70389EC92E009951092E9020ACFC4
:1046E00010920E0334CFDC01ED91FC9111973097BD
:1046F00061F012962D913C911397E217F30728F47D
:1047000001900020E9F7ED93FC930895FC0180816E
:104710009181009739F0228133818217930710F439
:104720000C94992E90E080E00895AF92BF92CF92C2
:10473000DF92EF92FF920F931F93CF93DF93CDB74A
:10474000DEB7CC5CD1090FB6F894DEBF0FBECDBF8B
:104750005C01CE0189579F4FC953DF4F99838883EE
:10476000C75CD040C753DF4F19821882C95CD04064
:1047700080E490E0C553DF4F99838883CB5CD040C1
:1047800065E272E0CE0189539F4F0E94A0166AE253
:1047900072E0CE0189539F4F0E94A01646E850E078
:1047A0006AE671E0CE0101960E94DE2EC753DF4F0C
:1047B000C880D980C95CD04081E0C81AD108C953EB
:1047C000DF4FE880F980C75CD04006E810E09E012A
:1047D0002F5F3F4F50E040E061E1C5010E944A1E5B
:1047E000C453DF4F0FB6F894DEBF0FBECDBFDF91CD
:1047F000CF911F910F91FF90EF90DF90CF90BF90DE
:10480000AF900895ECEDF3E01382128288EE93E00E
:10481000A0E0B0E084839583A683B78328E431E0E9
:104820003183208325EC30E03587248724EC30E089
:104830003787268720EC30E0318B208B21EC30E06D
:10484000338B228B22EC30E0358B248B26EC30E04E
:10485000378B268B118E128E138E148EE9E7F4E0BF
:104860001382128284839583A683B7838AE591E0BD
:1048700091838083E5E8F4E08AEA91E09183808384
:104880001282138214821582EBE8F4E09183808314
:104890001282138214821582E1E9F4E0918380830D
:1048A0001282138214821582E7E9F4E091838083F7
:1048B0001282138214821582EDE9F4E091838083E1
:1048C0001282138214821582E9EAF4E091838083D4
:1048D0001282138214821582E3EAF4E091838083CA
:1048E0001282138214821582EFEAF4E091838083AE
:1048F0001282138214821582E5EBF4E091838083A7
:104900001282138214821582EEEBF5E0918380838C
:104910001282138214821582EFEAF5E0138212826A
:1049200028E731E03183208324E0248728EE33E038
:1049300036872587A2EAB5E013969C938E9312974B
:1049400014961D921D921D921C92179719961C92F7
:104950001E9218971B961C921E921A971C961C92D8
:104960001C971196FC93EE9340E757E160E070E0EE
:104970004483558366837783E9E7F5E011821082EB
:104980001282138214821582168217821086118673
:10499000B387A2871586148617861686108A118A11
:1049A000128A138A148A158A168A178A108E118E13
:1049B000128E138E158E148E178E168E10A212A2C2
:1049C00011A2EDE6F5E0138212828CE691E091836C
:1049D000808387E2848380E1818782E082871386F7
:1049E0008FEF9FEF90936C0580936B050895CF93A5
:1049F000DF93CDB7DEB72C970FB6F894DEBF0FBEAE
:104A0000CDBF789484B5826084BD84B5816084BD57
:104A100085B5826085BD85B5816085BD80916E005C
:104A2000816080936E00109281008091810082608D
:104A300080938100809181008160809381008091CA
:104A400080008160809380008091B10084608093B9
:104A5000B1008091B00081608093B00080917A00B5
:104A6000846080937A0080917A00826080937A00DB
:104A700080917A00816080937A0080917A008068CA
:104A800080937A001092C10061E083E00E940302EB
:104A900061E087E00E94030261E088E00E94030277
:104AA0008EEF80939C059DEE90939D052AEB2093BD
:104AB0009E0580939F058093A0059093A105ABE38D
:104AC000B2E04BE552E0E1E0F0E09F012F5F3F4FA5
:104AD0006D91E758FA4F83A1862783A3F901263009
:104AE000310514F0E1E0F0E04A175B0771F78091BF
:104AF0009E0381112AC0109286031092850388EECE
:104B000093E0A0E0B0E08093870390938803A093A4
:104B10008903B0938A038EE191E09093840380939C
:104B200083038AEA91E09093920380939103109219
:104B3000930310929403109295031092960384E0CD
:104B400080939B0381E080939E0380E493E09093A5
:104B50003F0380933E0380913D038111ADC060E32C
:104B600072E080E090E00E94D602DFB6F8940AE19D
:104B700012E0EEE2EE2EE2E0FE2E80913B03811188
:104B800025C0F8018491F7019491E82FF0E0EE0F31
:104B9000FF1FEE50FE4FA591B4918C91982321F404
:104BA00061E08AE00E94D50161E08AE00E94030290
:104BB0008CB580618CBD8CB580648CBD61E08DE06E
:104BC0000E94030261E08BE00E94030280913B039C
:104BD0008F5F80933B03DFBEF8010491E02FF0E08C
:104BE000EE0FFF1FE450FE4F8591949190933A038E
:104BF00080933903F701E490E092380361E08AE0A2
:104C00000E9403020E94650680E591E00E949301E4
:104C100084E38093DB0380E80E9431070E94470C05
:104C2000882309F4FDC188E00E9431070E94340CFA
:104C3000883009F0F5C180E10E9431070E94340CF0
:104C4000803109F0EDC180E00E9431070E94340CF0
:104C5000182F8111E5C141E050E0BE016F5F7F4F29
:104C60008FE190E00E94BF0A8981833009F0D8C1AA
:104C700080E480933C0342E06EE170E0812F0E946B
:104C80008D0742E06FE170E0812F0E948D071F5F6A
:104C9000143089F740E06EE170E0812F0E948D07AB
:104CA00040E06FE170E0812F0E948D071F5F183098
:104CB00089F781E080933D0380E591E00E949301B4
:104CC00046E050E06CE975E089E090E00E948106E2
:104CD0008AEA91E09A8389831B821C821D821E824C
:104CE00044E050E0BE016D5F7F4F8FE090E00E9496
:104CF000810600913E0310913F03D80192961D92C8
:104D00001D921D921C929597F80116A217A210A64B
:104D100011A69A961D921D921D921C929D9780E657
:104D20009AEEA0E0B0E086AB97ABA0AFB1AF80EA5F
:104D30009FE0A0E0B0E082AF93AFA4AFB5AFD801E1
:104D4000189686E0FD01282F11922A95E9F798011F
:104D5000225F3F4F94E1F90111929A95E9F7ECE94E
:104D6000F5E001900D928A95E1F72C5C3F4F3A8770
:104D70002987D9011C920E94412E2FEC37E040E098
:104D800050E00E949432DC01CB010196A11DB11DBF
:104D9000F80184839583A683B78380839183A2835C
:104DA000B3835801F3E4AF0EB11CC5010E948F0B11
:104DB00064E470E0C5010E94F80E882309F499C1EB
:104DC0000E9409032B013C0148EEC42E43E0D42E7F
:104DD000E12CF12C52E0252E912C812CA985BA854D
:104DE0008C918330B9F181118EC1F8018481958154
:104DF000A681B7810196A11DB11D84839583A683E9
:104E0000B7830E9409036419750986099709A701E8
:104E100096010E94FD32A90161E0C8010E949F181D
:104E200081E0A985BA858C93F1E08F169104B1F2E7
:104E30000E9409036419750986099709D801D69655
:104E40002D913D914D915C91D997261737074807D1
:104E5000590710F6C5010E948F0BF80184819581D6
:104E6000A681B7810196A11DB11D84839583A68378
:104E7000B7830E940903F801FE96608371838283E1
:104E800093838A94892809F034C180E591E00E94D7
:104E9000930100913E0310913F03B801625F7F4F81
:104EA000CE0101960E949D1244E050E0BE016D5F6C
:104EB0007F4F8FE090E00E948106B8016A5E7F4FCD
:104EC000CE0101960E949D1244E050E0BE016D5F4C
:104ED0007F4F81E090E00E948106B8016E5E7F4FB7
:104EE000CE0101960E949D1244E050E0BE016D5F2C
:104EF0007F4F85E090E00E948106B801625E7F4F9F
:104F0000CE0101960E949D128B819C81AD81BE8154
:104F10008093A5049093A604A093A704B093A8043B
:104F20000E94B1027F738091000190910101682776
:104F30007927709301016093000168EE73E080E0CF
:104F400090E00E94D6028AEA91E09A8389831B82CC
:104F50001C821D821E8280E591E00E94930144E044
:104F600050E0BE016D5F7F4F8FE090E00E94BF0A6E
:104F70008BE392E090938605809385050E94090358
:104F8000DC01CB0188589341A109B10980938D05BB
:104F900090938E05A0938F05B0939005809389051B
:104FA00090938A05A0938B05B0938C05809391050F
:104FB00090939205A0939305B0939405E091830597
:104FC000F09184058CE592E09187808780E590E000
:104FD0009387828780918305909184050E94E108E0
:104FE00010929B0510929A050E9409036B017C01A7
:104FF00080919A0590919B05019709F44FC10E94F9
:1050000009036C197D098E099F0960357644810575
:10501000910508F043C189E795E00E94D219E8CFD5
:1050200087E38093DB0380E80E9431070E94470CEE
:10503000882329F188E00E9431070E94340C8830CF
:10504000F1F480E10E9431070E94340C182F803166
:10505000B1F480E00E9431070E94340C81110FC02E
:1050600041E050E0BE016F5F7F4F89E390E00E9416
:10507000BF0A8981843019F410933C031ACE83E36C
:105080008093DB0380E80E9431070E94470C88234D
:1050900071F180E10E9431070E94340C803139F5B2
:1050A00082E10E9431070E94340C823101F580E0D8
:1050B0000E9431070E94340C811119C084E0809352
:1050C0003C0315E5188741E050E0BE01685F7F4F63
:1050D0008BE190E00E9481061F8341E050E0BE0119
:1050E000695F7F4F8AE190E00E948106E2CD1092D5
:1050F000DB0360E177E280E090E00E94D602F0E01E
:10510000E0E00995FFCF8430F9F4F80184819581BE
:10511000A681B7810196A11DB11D84839583A683C5
:10512000B7830E9409036419750986099709A701C5
:1051300096010E94FD32A90163E0C8010E949F18F8
:10514000A985BA852C9270CE813059F5F80142AD0F
:1051500053AD64AD75AD9E012F5F3F4FC8010E94F6
:105160000017382EF2E08F1392C089819A81AB81AB
:10517000BC81F80184839583A683B7830E940903C9
:105180006419750986099709A70196010E94FD32E5
:10519000A90163E0C8010E949F18A985BA853C92C5
:1051A00043CE823009F040CEF80142AD53AD64AD3C
:1051B00075AD9E012F5F3F4FC8010E940017382E2A
:1051C000F5E08F135DC0E3E0A985BA85EC93F801A3
:1051D00082A193A1A4A1B5A1892B8A2B8B2B41F489
:1051E00024E833E040E050E022A333A344A355A3D6
:1051F000F80186A197A1A0A5B1A5892B8A2B8B2B9D
:1052000061F482A193A1A4A1B5A1B695A7959795A4
:10521000879586A397A3A0A7B1A7F80182A593A518
:10522000A4A5B5A5892B8A2B8B2BA9F482A193A1C8
:10523000A4A1B5A1AC01BD0123E076956795579572
:1052400047952A95D1F7841B950BA60BB70B82A720
:1052500093A7A4A7B5A7F80186A197A1A0A5B1A57A
:1052600086A797A7A0ABB1AB82A593A5A4A5B5A52A
:1052700082AB93ABA4ABB5AB88248394912CD4CDF3
:10528000F6E08F1304C0A985BA851C92CDCDBFEF7F
:105290003B12CACDE985FA851082C6CD80919A0568
:1052A00090919B05019709F095CE1092AD03109255
:1052B000AC031092AB031092AA030E94A00485E1F4
:1052C00093E09093A9038093A80386E193E09093E1
:1052D000A7038093A6031092720580917705823010
:1052E00018F098E0909372058093750562E370E082
:1052F00080E090E00E94D602609178058DE695E00E
:105300000E94640568EE73E080E090E00E94D6029F
:1053100060E38DE695E00E94B7090BE416E4C8014E
:105320000197F1F760E38DE695E00E94B709C801A7
:105330000197F1F760E38DE695E00E94B70983E5F8
:1053400092E00197F1F760E28DE695E00E94B709DF
:1053500060917205606240E08DE695E00E94D009A0
:1053600084E08093730540E06CE08DE695E00E9458
:10537000D0090E94AE0A62E0F62EF092740540E079
:1053800066E08DE695E00E94D00940E062E08DE69F
:1053900095E00E94D0090BE31FE1C8010197F1F7E6
:1053A00088E08093780560E08DE695E00E946405D2
:1053B0000E94AE0A40E062E08DE695E00E94D009CE
:1053C000C8010197F1F760E080E00E94E70988E6F4
:1053D00092E00E94680968EE73E080E090E00E942D
:1053E000D6020E94AE0AE091EC03F091ED03F08248
:1053F000E091E803F091E9031082E091EA03F09173
:10540000EB0387E680831092F403E091F003F091C0
:10541000F10386E08083E091EE03F091EF03808159
:1054200080618083E091EE03F091EF0380818860DA
:105430008083E091EE03F091EF03808180688083A8
:10544000E091EE03F091EF0380818F7D80838FEFF9
:1054500090E00E9454048FEF90E00E9454048FEF7C
:1054600090E00E94540480916B0590916C0597FF29
:1054700022C00E940903EBEBF4E050E040E026E19B
:10548000249FD001259FB00D11248D0105541B4F81
:10549000D801322F1D923A95E9F760837183828398
:1054A00093834F5F5F4F76964830510549F71092CE
:1054B0006C0510926B0580916B0590916C050897B7
:1054C000CCF5EBEBF4E090E080E024813581232BF8
:1054D00009F0A1C126813781232B09F09CC126E167
:1054E000289F8001299F100D112405541B4F88EE21
:1054F00093E0A0E0B0E0F80183879487A587B687A2
:105500008FEE90E2958384831286108A178681E05D
:10551000838B0E940903D8016D937D938D939C9397
:10552000139780916B0590916C05019690936C0593
:1055300080936B0522242394312C56E1D52ECC2464
:10554000C39489E795E00E94D2190E9409032B01B8
:105550003C013BEBE32E34E0F32E8701F801158A82
:10556000148A84819581892B29F486819781892BDE
:1055700009F449C0D8012D913D914D915C9113974B
:1055800029873A874B875C87C301B201621B730B83
:10559000840B950B1B968D909D90AD90BC901E97A3
:1055A000681579058A059B0570F181149104A104A1
:1055B000B10409F437C1A50194010E94FD32C5016F
:1055C000B4010E94463429853A854B855C85620F7B
:1055D000731F841F951FD8016D937D938D939C93AA
:1055E0001397D80153968C915397882361F01F9697
:1055F0002D913C9150972115310509F019C155960F
:105600003C922E9254970A5E1F4F35E00B361307DB
:1056100009F0A4CF10E000E0D70154968D919C9141
:105620005597892BF1F11A968C911A97882309F4D2
:1056300014C11696ED91FC91179718968D919C9137
:105640000995F70184899589029759F580916B0531
:1056500090916C05892B29F184819581892B21F406
:1056600086819781892BE9F0D09EF001D19EF00DC3
:105670001124E554FB4FDF012D2D1D922A95E9F7EA
:105680000E940903D7016D937D938D939C9313978B
:1056900080916B0590916C05019790936C058093B8
:1056A0006B050F5F1F4FB6E1EB0EF11C08301105C3
:1056B00009F0B2CF8FE00E949C029695879596954F
:1056C00087956FEF70E0681B790B83E00E943F02C3
:1056D00064E670E080E090E00E94D6020E943C0800
:1056E0006093B2037093B3038093B4039093B503B4
:1056F0000E943C0820E030E04CE052E40E943C3440
:105700001816C4F48091AE038823A1F01092AE0362
:1057100060E087E00E94D50170E060E082E090E008
:105720000E948A2060E088E00E94E7098EED91E007
:105730000E9468090E9460089093B1038093B003AF
:105740000E946008803D9740B0F48091AF038111C2
:1057500012C0C092AF030E94580861E070E08BE075
:1057600090E00E948A2061E087E00E94E70982ECD5
:1057700091E00E94680960E080E00E94E7094091A2
:10578000B0035091B10370E060E02AE08DE695E04F
:105790000E941C0960E080E00E94E7098090B2034B
:1057A0009090B303A090B403B090B503A501940109
:1057B000C501B4010E94413468E772E081111AC04A
:1057C00024013501E89477F82FEF3FEF4FE75FE7CB
:1057D000C301B2010E944134811144C02FEF3FEF59
:1057E0004FE75FE7C301B2010E9470311816D4F58C
:1057F0006CE772E08DE695E00E940D0920E030E054
:10580000232B09F49ECE0E94D103882309F499CE5C
:105810000E94000096CE019676968830910509F098
:1058200054CE88CEF8014082518262827382D9CEF2
:10583000F801818992898217930708F0E4CE358AAE
:10584000248A0196928B818B8217930708F4DBCE12
:1058500022E030E0358B248BD6CE1496ED91FC916E
:105860000995EFCE2FEF3FEF4FE75FE4C501B4019D
:105870000E943C3418161CF460E872E0BBCF2FEF96
:105880003FEF4FE75FECC501B4010E94703187FD27
:10589000F3CF20E030E0A901C501B4010E947031CE
:1058A00087FF0AC041E06DE28DE695E00E94D009D5
:1058B000B7FAB094B7F8B0942AE037ED43EA5BE367
:1058C000C501B4010E942F332B013C010E940D340D
:1058D0004B015C010E9475319B01AC01C301B20117
:1058E0000E942E332B013C012AE0B501A4018DE674
:1058F00095E00E941C0941E06EE28DE695E00E9471
:10590000D00920E030E040E251E4C301B2010E943E
:10591000D6312B013C010E940D344B01B12CA12C3E
:105920002AE0B501A4018DE695E00E941C09C5019D
:10593000B4010E9475319B01AC01C301B2010E9408
:105940002E3320E030E040E251E40E94D6310E9444
:105950000D34AB0170E060E02AE08DE695E00E9436
:105960001C094CCFEF920F931F93CF93DF93E80165
:1059700034E047FD34E1042E000C550B57FF03C003
:10598000519541955109E32E022F242FAE010E941B
:10599000292FCE01DF91CF911F910F91EF900895A4
:1059A0000F931F93CF93DF938230910510F482E021
:1059B00090E0E091C605F091C70530E020E0B0E04E
:1059C000A0E0309799F42115310509F44AC0281B4D
:1059D000390B24303105D8F58A819B816115710519
:1059E00089F1FB0193838283FE0111C040815181C3
:1059F0000281138148175907E0F04817590799F4B5
:105A0000109761F012960C93129713961C9332968E
:105A1000CF01DF91CF911F910F9108950093C6059B
:105A20001093C705F4CF2115310551F042175307E4
:105A300038F0A901DB019A01BD01DF01F801C1CFF6
:105A4000EF01F9CF9093C7058093C605CDCFFE0136
:105A5000E20FF31F819391932250310939832883F8
:105A6000D7CF2091C4053091C505232B41F4209157
:105A70000401309105013093C5052093C4052091A0
:105A80000201309103012115310541F42DB73EB7D4
:105A90004091060150910701241B350BE091C4058C
:105AA000F091C505E217F307A0F42E1B3F0B281752
:105AB000390778F0AC014E5F5F4F2417350748F087
:105AC0004E0F5F1F5093C5054093C405819391937A
:105AD0009FCFF0E0E0E09CCFCF93DF930097E9F019
